:020000040800F2
:10000000FF270020010200084902000849020008F9
:1000100049020008490200084902000800000000E7
:10002000000000000000000000000000490200087D
:1000300049020008000000004902000849020008C7
:100040004902000849020008490200084902000864
:100050004902000849020008490200084902000854
:100060004902000849020008490200084902000844
:100070004902000849020008490200084902000834
:100080004902000849020008490200084902000824
:100090004902000849020008490200084902000814
:1000A0004902000849020008490200084902000804
:1000B0004902000849020008000000004902000847
:1000C000490200080000000000000000490200088A
:1000D000000000004902000849020008000000007A
:1000E0004902000849020008490200080000000017
:1000F0000000000000000000000000000000000000
:0C01000000000000000000005FF808F1A3
:10010C000348044B834202D0034B03B1184770479A
:10011C000000002000000020000000000548064BF5
:10012C001B1AD90F01EBA301491002D0034B03B1E9
:10013C00184770470000002000000020000000005D
:10014C0010B5064C237843B9FFF7DAFF044B13B113
:10015C000448AFF300800123237010BD0000002081
:10016C00000000009402000808B5054B1BB10549BE
:10017C000548AFF30080BDE80840FFF7CFBF00BFD4
:10018C0000000000040000209402000882B0154A10
:10019C00936943F010039361134B5A6822F4700275
:1001AC005A605A6842F480125A6010E0009B013386
:1001BC000093009A0D4B9A42F8DD0B4B4FF4005212
:1001CC001A6100230193019A084B9A4206DD064BF3
:1001DC004FF000521A6100230093EAE7019B0133B0
:1001EC000193F0E700100240001001409F860100CF
:1001FC0070470000FFF7FCFF0B480C490C4A00232A
:10020C0002E0D458C4500433C4188C42F9D3094AC0
:10021C00094C002301E013600432A242FBD300F02E
:10022C000FF8FFF7B3FF704700000020000000201C
:10023C00B4020008000000201C000020FEE70000B3
:10024C0070B500260C4D0D4B5B1B9C10A64209D1C2
:10025C00002600F019F80A4D0A4B5B1B9C10A642B5
:10026C0005D170BD55F8043B98470136EEE755F8BB
:10027C00043B98470136F2E7AC020008AC020008D8
:10028C00AC020008B0020008F8B500BFF8BC08BC0E
:10029C009E467047F8B500BFF8BC08BC9E46704738
:0402AC0075010008D0
:0402B0004D010008F4
:0400000508000201EC
:00000001FF
